{
  "contractName": "Dex",
  "abi": [
    {
      "inputs": [
        {
          "internalType": "bytes32",
          "name": "ticker",
          "type": "bytes32"
        },
        {
          "internalType": "address",
          "name": "addressToken",
          "type": "address"
        }
      ],
      "name": "addToken",
      "outputs": [],
      "stateMutability": "nonpayable",
      "type": "function"
    },
    {
      "inputs": [
        {
          "internalType": "address",
          "name": "",
          "type": "address"
        },
        {
          "internalType": "bytes32",
          "name": "",
          "type": "bytes32"
        }
      ],
      "name": "balances",
      "outputs": [
        {
          "internalType": "uint256",
          "name": "",
          "type": "uint256"
        }
      ],
      "stateMutability": "view",
      "type": "function",
      "constant": true
    },
    {
      "inputs": [
        {
          "internalType": "uint256",
          "name": "amount",
          "type": "uint256"
        },
        {
          "internalType": "bytes32",
          "name": "ticker",
          "type": "bytes32"
        }
      ],
      "name": "deposit",
      "outputs": [],
      "stateMutability": "nonpayable",
      "type": "function"
    },
    {
      "inputs": [
        {
          "internalType": "bytes32",
          "name": "",
          "type": "bytes32"
        },
        {
          "internalType": "uint256",
          "name": "",
          "type": "uint256"
        },
        {
          "internalType": "uint256",
          "name": "",
          "type": "uint256"
        }
      ],
      "name": "orderBook",
      "outputs": [
        {
          "internalType": "uint256",
          "name": "id",
          "type": "uint256"
        },
        {
          "internalType": "address",
          "name": "trader",
          "type": "address"
        },
        {
          "internalType": "enum Dex.Side",
          "name": "side",
          "type": "uint8"
        },
        {
          "internalType": "bytes32",
          "name": "ticker",
          "type": "bytes32"
        },
        {
          "internalType": "uint256",
          "name": "amount",
          "type": "uint256"
        },
        {
          "internalType": "uint256",
          "name": "price",
          "type": "uint256"
        }
      ],
      "stateMutability": "view",
      "type": "function",
      "constant": true
    },
    {
      "inputs": [
        {
          "internalType": "uint256",
          "name": "",
          "type": "uint256"
        }
      ],
      "name": "tokenList",
      "outputs": [
        {
          "internalType": "bytes32",
          "name": "",
          "type": "bytes32"
        }
      ],
      "stateMutability": "view",
      "type": "function",
      "constant": true
    },
    {
      "inputs": [
        {
          "internalType": "bytes32",
          "name": "",
          "type": "bytes32"
        }
      ],
      "name": "tokenMapping",
      "outputs": [
        {
          "internalType": "bytes32",
          "name": "ticker",
          "type": "bytes32"
        },
        {
          "internalType": "address",
          "name": "tokenAddress",
          "type": "address"
        }
      ],
      "stateMutability": "view",
      "type": "function",
      "constant": true
    },
    {
      "inputs": [
        {
          "internalType": "uint256",
          "name": "amount",
          "type": "uint256"
        },
        {
          "internalType": "bytes32",
          "name": "ticker",
          "type": "bytes32"
        }
      ],
      "name": "withdraw",
      "outputs": [],
      "stateMutability": "nonpayable",
      "type": "function"
    },
    {
      "inputs": [
        {
          "internalType": "bytes32",
          "name": "ticker",
          "type": "bytes32"
        },
        {
          "internalType": "uint256",
          "name": "amount",
          "type": "uint256"
        },
        {
          "internalType": "uint256",
          "name": "price",
          "type": "uint256"
        },
        {
          "internalType": "enum Dex.Side",
          "name": "side",
          "type": "uint8"
        }
      ],
      "name": "createLimitOrder",
      "outputs": [],
      "stateMutability": "nonpayable",
      "type": "function"
    }
  ],
  "bytecode": "0x608060405234801561000f575f80fd5b506111748061001d5f395ff3fe608060405234801561000f575f80fd5b5060043610610086575f3560e01c80639ead7222116100595780639ead72221461013c578063a8d2021a1461016c578063c9630cb014610188578063d9c0c950146101a457610086565b80630bb431b61461008a5780631f14df69146100bf578063667cb4ba146100ef5780639776aacf14610120575b5f80fd5b6100a4600480360381019061009f9190610b35565b6101c0565b6040516100b696959493929190610c55565b60405180910390f35b6100d960048036038101906100d49190610cde565b610249565b6040516100e69190610d1c565b60405180910390f35b61010960048036038101906101049190610d35565b610269565b604051610117929190610d60565b60405180910390f35b61013a60048036038101906101359190610d87565b6102a8565b005b61015660048036038101906101519190610dc5565b61035e565b6040516101639190610df0565b60405180910390f35b61018660048036038101906101819190610e09565b61037d565b005b6101a2600480360381019061019d9190610e09565b61058b565b005b6101be60048036038101906101b99190610e6a565b610745565b005b6003602052825f5260405f20602052815f5260405f2081815481106101e3575f80fd5b905f5260205f2090600502015f925092505050805f015490806001015f9054906101000a900473ffffffffffffffffffffffffffffffffffffffff16908060010160149054906101000a900460ff16908060020154908060030154908060040154905086565b6002602052815f5260405f20602052805f5260405f205f91509150505481565b6001602052805f5260405f205f91509050805f015490806001015f9054906101000a900473ffffffffffffffffffffffffffffffffffffffff16905082565b60405180604001604052808381526020018273ffffffffffffffffffffffffffffffffffffffff1681525060015f8481526020019081526020015f205f820151815f01556020820151816001015f6101000a81548173ffffffffffffffffffffffffffffffffffffffff021916908373ffffffffffffffffffffffffffffffffffffffff1602179055509050505f82908060018154018082558091505060019003905f5260205f20015f90919091909150555050565b5f818154811061036c575f80fd5b905f5260205f20015f915090505481565b5f73ffffffffffffffffffffffffffffffffffffffff1660015f8381526020019081526020015f206001015f9054906101000a900473ffffffffffffffffffffffffffffffffffffffff1673ffffffffffffffffffffffffffffffffffffffff16036103e7575f80fd5b8160025f3373ffffffffffffffffffffffffffffffffffffffff1673ffffffffffffffffffffffffffffffffffffffff1681526020019081526020015f205f8381526020019081526020015f20541015610476576040517f08c379a000000000000000000000000000000000000000000000000000000000815260040161046d90610f28565b60405180910390fd5b60015f8281526020019081526020015f206001015f9054906101000a900473ffffffffffffffffffffffffffffffffffffffff1673ffffffffffffffffffffffffffffffffffffffff1663a9059cbb33846040518363ffffffff1660e01b81526004016104e4929190610f46565b6020604051808303815f875af1158015610500573d5f803e3d5ffd5b505050506040513d601f19601f820116820180604052508101906105249190610fa2565b508160025f3373ffffffffffffffffffffffffffffffffffffffff1673ffffffffffffffffffffffffffffffffffffffff1681526020019081526020015f205f8381526020019081526020015f205f8282546105809190610ffa565b925050819055505050565b805f73ffffffffffffffffffffffffffffffffffffffff1660015f8381526020019081526020015f206001015f9054906101000a900473ffffffffffffffffffffffffffffffffffffffff1673ffffffffffffffffffffffffffffffffffffffff160361062d576040517f08c379a000000000000000000000000000000000000000000000000000000000815260040161062490611077565b60405180910390fd5b60015f8381526020019081526020015f206001015f9054906101000a900473ffffffffffffffffffffffffffffffffffffffff1673ffffffffffffffffffffffffffffffffffffffff166323b872dd3330866040518463ffffffff1660e01b815260040161069d93929190611095565b6020604051808303815f875af11580156106b9573d5f803e3d5ffd5b505050506040513d601f19601f820116820180604052508101906106dd9190610fa2565b508260025f3373ffffffffffffffffffffffffffffffffffffffff1673ffffffffffffffffffffffffffffffffffffffff1681526020019081526020015f205f8481526020019081526020015f205f82825461073991906110ca565b92505081905550505050565b5f73ffffffffffffffffffffffffffffffffffffffff1660015f8681526020019081526020015f206001015f9054906101000a900473ffffffffffffffffffffffffffffffffffffffff1673ffffffffffffffffffffffffffffffffffffffff16036107e6576040517f08c379a00000000000000000000000000000000000000000000000000000000081526004016107dd90611077565b60405180910390fd5b5f60018111156107f9576107f8610bd3565b5b81600181111561080c5761080b610bd3565b5b036108b057818361081d91906110fd565b60025f3373ffffffffffffffffffffffffffffffffffffffff1673ffffffffffffffffffffffffffffffffffffffff1681526020019081526020015f205f8681526020019081526020015f205410156108ab576040517f08c379a00000000000000000000000000000000000000000000000000000000081526004016108a290610f28565b60405180910390fd5b610940565b8260025f3373ffffffffffffffffffffffffffffffffffffffff1673ffffffffffffffffffffffffffffffffffffffff1681526020019081526020015f205f8681526020019081526020015f2054101561093f576040517f08c379a000000000000000000000000000000000000000000000000000000000815260040161093690610f28565b60405180910390fd5b5b5f60035f8681526020019081526020015f205f83600181111561096657610965610bd3565b5b81526020019081526020015f2080549050905060035f8681526020019081526020015f205f83600181111561099e5761099d610bd3565b5b81526020019081526020015f206040518060c001604052808381526020013373ffffffffffffffffffffffffffffffffffffffff1681526020018460018111156109eb576109ea610bd3565b5b815260200187815260200186815260200185815250908060018154018082558091505060019003905f5260205f2090600502015f909190919091505f820151815f01556020820151816001015f6101000a81548173ffffffffffffffffffffffffffffffffffffffff021916908373ffffffffffffffffffffffffffffffffffffffff16021790555060408201518160010160146101000a81548160ff02191690836001811115610a9f57610a9e610bd3565b5b0217905550606082015181600201556080820151816003015560a0820151816004015550505050505050565b5f80fd5b5f819050919050565b610ae181610acf565b8114610aeb575f80fd5b50565b5f81359050610afc81610ad8565b92915050565b5f819050919050565b610b1481610b02565b8114610b1e575f80fd5b50565b5f81359050610b2f81610b0b565b92915050565b5f805f60608486031215610b4c57610b4b610acb565b5b5f610b5986828701610aee565b9350506020610b6a86828701610b21565b9250506040610b7b86828701610b21565b9150509250925092565b610b8e81610b02565b82525050565b5f73ffffffffffffffffffffffffffffffffffffffff82169050919050565b5f610bbd82610b94565b9050919050565b610bcd81610bb3565b82525050565b7f4e487b71000000000000000000000000000000000000000000000000000000005f52602160045260245ffd5b60028110610c1157610c10610bd3565b5b50565b5f819050610c2182610c00565b919050565b5f610c3082610c14565b9050919050565b610c4081610c26565b82525050565b610c4f81610acf565b82525050565b5f60c082019050610c685f830189610b85565b610c756020830188610bc4565b610c826040830187610c37565b610c8f6060830186610c46565b610c9c6080830185610b85565b610ca960a0830184610b85565b979650505050505050565b610cbd81610bb3565b8114610cc7575f80fd5b50565b5f81359050610cd881610cb4565b92915050565b5f8060408385031215610cf457610cf3610acb565b5b5f610d0185828601610cca565b9250506020610d1285828601610aee565b9150509250929050565b5f602082019050610d2f5f830184610b85565b92915050565b5f60208284031215610d4a57610d49610acb565b5b5f610d5784828501610aee565b91505092915050565b5f604082019050610d735f830185610c46565b610d806020830184610bc4565b9392505050565b5f8060408385031215610d9d57610d9c610acb565b5b5f610daa85828601610aee565b9250506020610dbb85828601610cca565b9150509250929050565b5f60208284031215610dda57610dd9610acb565b5b5f610de784828501610b21565b91505092915050565b5f602082019050610e035f830184610c46565b92915050565b5f8060408385031215610e1f57610e1e610acb565b5b5f610e2c85828601610b21565b9250506020610e3d85828601610aee565b9150509250929050565b60028110610e53575f80fd5b50565b5f81359050610e6481610e47565b92915050565b5f805f8060808587031215610e8257610e81610acb565b5b5f610e8f87828801610aee565b9450506020610ea087828801610b21565b9350506040610eb187828801610b21565b9250506060610ec287828801610e56565b91505092959194509250565b5f82825260208201905092915050565b7f4e6f742073756666696369656e742066756e64730000000000000000000000005f82015250565b5f610f12601483610ece565b9150610f1d82610ede565b602082019050919050565b5f6020820190508181035f830152610f3f81610f06565b9050919050565b5f604082019050610f595f830185610bc4565b610f666020830184610b85565b9392505050565b5f8115159050919050565b610f8181610f6d565b8114610f8b575f80fd5b50565b5f81519050610f9c81610f78565b92915050565b5f60208284031215610fb757610fb6610acb565b5b5f610fc484828501610f8e565b91505092915050565b7f4e487b71000000000000000000000000000000000000000000000000000000005f52601160045260245ffd5b5f61100482610b02565b915061100f83610b02565b925082820390508181111561102757611026610fcd565b5b92915050565b7f546f6b656e20646f65736e2774206578697374000000000000000000000000005f82015250565b5f611061601383610ece565b915061106c8261102d565b602082019050919050565b5f6020820190508181035f83015261108e81611055565b9050919050565b5f6060820190506110a85f830186610bc4565b6110b56020830185610bc4565b6110c26040830184610b85565b949350505050565b5f6110d482610b02565b91506110df83610b02565b92508282019050808211156110f7576110f6610fcd565b5b92915050565b5f61110782610b02565b915061111283610b02565b925082820261112081610b02565b9150828204841483151761113757611136610fcd565b5b509291505056fea26469706673582212203295d679240c6e9c1317bfb832938e2e993951da0efd5963081c8699dbc2e81864736f6c63430008140033",
  "immutableReferences": {},
  "source": "// SPDX-License-Identifier: MIT\r\npragma solidity ^0.8.20;\r\n\r\nimport \"./walletContract.sol\";\r\n\r\ncontract Dex is WalletContract {\r\n    enum Side {\r\n        BUY,\r\n        SELL\r\n    }\r\n\r\n    struct Order {\r\n        uint id;\r\n        address trader;\r\n        Side side;\r\n        bytes32 ticker;\r\n        uint amount;\r\n        uint price;\r\n    }\r\n\r\n    mapping(bytes32 => mapping(uint => Order[])) public orderBook;\r\n\r\n    // Add a new order to the order book\r\n    function createLimitOrder(\r\n        bytes32 ticker,\r\n        uint amount,\r\n        uint price,\r\n        Side side\r\n    ) public {\r\n        // Validate that the token exists in the walletContract\r\n        require(\r\n            tokenMapping[ticker].tokenAddress != address(0),\r\n            \"Token doesn't exist\"\r\n        );\r\n\r\n        if (side == Side.BUY) {\r\n            // Add logic for handling buy orders\r\n            // Check if the trader has sufficient balance to create the order\r\n            require(\r\n                balances[msg.sender][ticker] >= amount * price,\r\n                \"Not sufficient funds\"\r\n            );\r\n        } else {\r\n            // Add logic for handling sell orders\r\n            // Check if the trader has sufficient balance to create the order\r\n            require(\r\n                balances[msg.sender][ticker] >= amount,\r\n                \"Not sufficient funds\"\r\n            );\r\n        }\r\n\r\n        uint orderBookIndex = orderBook[ticker][uint(side)].length;\r\n        orderBook[ticker][uint(side)].push(\r\n            Order(orderBookIndex, msg.sender, side, ticker, amount, price)\r\n        );\r\n    }\r\n}\r\n",
  "sourcePath": "C:\\Users\\USER\\DEX\\contracts\\dex.sol",
  "compiler": {
    "name": "solc",
    "version": "0.8.20+commit.a1b79de6.Emscripten.clang"
  },
  "schemaVersion": "3.4.13",
  "updatedAt": "2023-11-09T09:59:57.873Z",
  "networkType": "ethereum",
  "devdoc": {
    "kind": "dev",
    "methods": {},
    "version": 1
  },
  "userdoc": {
    "kind": "user",
    "methods": {},
    "version": 1
  }
}