{
  "contractName": "WalletContract",
  "abi": [
    {
      "inputs": [],
      "stateMutability": "nonpayable",
      "type": "constructor"
    },
    {
      "inputs": [
        {
          "internalType": "address",
          "name": "",
          "type": "address"
        },
        {
          "internalType": "bytes32",
          "name": "",
          "type": "bytes32"
        }
      ],
      "name": "balances",
      "outputs": [
        {
          "internalType": "uint256",
          "name": "",
          "type": "uint256"
        }
      ],
      "stateMutability": "view",
      "type": "function",
      "constant": true
    },
    {
      "inputs": [
        {
          "internalType": "uint256",
          "name": "",
          "type": "uint256"
        }
      ],
      "name": "tokenList",
      "outputs": [
        {
          "internalType": "bytes32",
          "name": "",
          "type": "bytes32"
        }
      ],
      "stateMutability": "view",
      "type": "function",
      "constant": true
    },
    {
      "inputs": [
        {
          "internalType": "bytes32",
          "name": "",
          "type": "bytes32"
        }
      ],
      "name": "tokenMapping",
      "outputs": [
        {
          "internalType": "bytes32",
          "name": "ticker",
          "type": "bytes32"
        },
        {
          "internalType": "address",
          "name": "tokenAddress",
          "type": "address"
        }
      ],
      "stateMutability": "view",
      "type": "function",
      "constant": true
    },
    {
      "inputs": [
        {
          "internalType": "bytes32",
          "name": "ticker",
          "type": "bytes32"
        },
        {
          "internalType": "address",
          "name": "addressToken",
          "type": "address"
        }
      ],
      "name": "addToken",
      "outputs": [],
      "stateMutability": "nonpayable",
      "type": "function"
    },
    {
      "inputs": [
        {
          "internalType": "uint256",
          "name": "amount",
          "type": "uint256"
        },
        {
          "internalType": "bytes32",
          "name": "ticker",
          "type": "bytes32"
        }
      ],
      "name": "deposit",
      "outputs": [],
      "stateMutability": "nonpayable",
      "type": "function"
    },
    {
      "inputs": [
        {
          "internalType": "uint256",
          "name": "amount",
          "type": "uint256"
        },
        {
          "internalType": "bytes32",
          "name": "ticker",
          "type": "bytes32"
        }
      ],
      "name": "withdraw",
      "outputs": [],
      "stateMutability": "nonpayable",
      "type": "function"
    }
  ],
  "bytecode": "0x608060405234801561000f575f80fd5b50610b048061001d5f395ff3fe608060405234801561000f575f80fd5b5060043610610060575f3560e01c80631f14df6914610064578063667cb4ba146100945780639776aacf146100c55780639ead7222146100e1578063a8d2021a14610111578063c9630cb01461012d575b5f80fd5b61007e600480360381019061007991906106d6565b610149565b60405161008b919061072c565b60405180910390f35b6100ae60048036038101906100a99190610745565b610169565b6040516100bc92919061078e565b60405180910390f35b6100df60048036038101906100da91906107b5565b6101a8565b005b6100fb60048036038101906100f6919061081d565b61025e565b6040516101089190610848565b60405180910390f35b61012b60048036038101906101269190610861565b61027d565b005b61014760048036038101906101429190610861565b61048b565b005b6002602052815f5260405f20602052805f5260405f205f91509150505481565b6001602052805f5260405f205f91509050805f015490806001015f9054906101000a900473ffffffffffffffffffffffffffffffffffffffff16905082565b60405180604001604052808381526020018273ffffffffffffffffffffffffffffffffffffffff1681525060015f8481526020019081526020015f205f820151815f01556020820151816001015f6101000a81548173ffffffffffffffffffffffffffffffffffffffff021916908373ffffffffffffffffffffffffffffffffffffffff1602179055509050505f82908060018154018082558091505060019003905f5260205f20015f90919091909150555050565b5f818154811061026c575f80fd5b905f5260205f20015f915090505481565b5f73ffffffffffffffffffffffffffffffffffffffff1660015f8381526020019081526020015f206001015f9054906101000a900473ffffffffffffffffffffffffffffffffffffffff1673ffffffffffffffffffffffffffffffffffffffff16036102e7575f80fd5b8160025f3373ffffffffffffffffffffffffffffffffffffffff1673ffffffffffffffffffffffffffffffffffffffff1681526020019081526020015f205f8381526020019081526020015f20541015610376576040517f08c379a000000000000000000000000000000000000000000000000000000000815260040161036d906108f9565b60405180910390fd5b60015f8281526020019081526020015f206001015f9054906101000a900473ffffffffffffffffffffffffffffffffffffffff1673ffffffffffffffffffffffffffffffffffffffff1663a9059cbb33846040518363ffffffff1660e01b81526004016103e4929190610917565b6020604051808303815f875af1158015610400573d5f803e3d5ffd5b505050506040513d601f19601f820116820180604052508101906104249190610973565b508160025f3373ffffffffffffffffffffffffffffffffffffffff1673ffffffffffffffffffffffffffffffffffffffff1681526020019081526020015f205f8381526020019081526020015f205f82825461048091906109cb565b925050819055505050565b805f73ffffffffffffffffffffffffffffffffffffffff1660015f8381526020019081526020015f206001015f9054906101000a900473ffffffffffffffffffffffffffffffffffffffff1673ffffffffffffffffffffffffffffffffffffffff160361052d576040517f08c379a000000000000000000000000000000000000000000000000000000000815260040161052490610a48565b60405180910390fd5b60015f8381526020019081526020015f206001015f9054906101000a900473ffffffffffffffffffffffffffffffffffffffff1673ffffffffffffffffffffffffffffffffffffffff166323b872dd3330866040518463ffffffff1660e01b815260040161059d93929190610a66565b6020604051808303815f875af11580156105b9573d5f803e3d5ffd5b505050506040513d601f19601f820116820180604052508101906105dd9190610973565b508260025f3373ffffffffffffffffffffffffffffffffffffffff1673ffffffffffffffffffffffffffffffffffffffff1681526020019081526020015f205f8481526020019081526020015f205f8282546106399190610a9b565b92505081905550505050565b5f80fd5b5f73ffffffffffffffffffffffffffffffffffffffff82169050919050565b5f61067282610649565b9050919050565b61068281610668565b811461068c575f80fd5b50565b5f8135905061069d81610679565b92915050565b5f819050919050565b6106b5816106a3565b81146106bf575f80fd5b50565b5f813590506106d0816106ac565b92915050565b5f80604083850312156106ec576106eb610645565b5b5f6106f98582860161068f565b925050602061070a858286016106c2565b9150509250929050565b5f819050919050565b61072681610714565b82525050565b5f60208201905061073f5f83018461071d565b92915050565b5f6020828403121561075a57610759610645565b5b5f610767848285016106c2565b91505092915050565b610779816106a3565b82525050565b61078881610668565b82525050565b5f6040820190506107a15f830185610770565b6107ae602083018461077f565b9392505050565b5f80604083850312156107cb576107ca610645565b5b5f6107d8858286016106c2565b92505060206107e98582860161068f565b9150509250929050565b6107fc81610714565b8114610806575f80fd5b50565b5f81359050610817816107f3565b92915050565b5f6020828403121561083257610831610645565b5b5f61083f84828501610809565b91505092915050565b5f60208201905061085b5f830184610770565b92915050565b5f806040838503121561087757610876610645565b5b5f61088485828601610809565b9250506020610895858286016106c2565b9150509250929050565b5f82825260208201905092915050565b7f4e6f742073756666696369656e742066756e64730000000000000000000000005f82015250565b5f6108e360148361089f565b91506108ee826108af565b602082019050919050565b5f6020820190508181035f830152610910816108d7565b9050919050565b5f60408201905061092a5f83018561077f565b610937602083018461071d565b9392505050565b5f8115159050919050565b6109528161093e565b811461095c575f80fd5b50565b5f8151905061096d81610949565b92915050565b5f6020828403121561098857610987610645565b5b5f6109958482850161095f565b91505092915050565b7f4e487b71000000000000000000000000000000000000000000000000000000005f52601160045260245ffd5b5f6109d582610714565b91506109e083610714565b92508282039050818111156109f8576109f761099e565b5b92915050565b7f546f6b656e20646f65736e2774206578697374000000000000000000000000005f82015250565b5f610a3260138361089f565b9150610a3d826109fe565b602082019050919050565b5f6020820190508181035f830152610a5f81610a26565b9050919050565b5f606082019050610a795f83018661077f565b610a86602083018561077f565b610a93604083018461071d565b949350505050565b5f610aa582610714565b9150610ab083610714565b9250828201905080821115610ac857610ac761099e565b5b9291505056fea2646970667358221220c157a9efa5555cfadc43cbeab0d3b2212968cebe9b3a5879159bfea86f999e7c64736f6c63430008140033",
  "immutableReferences": {},
  "source": "// SPDX-License-Identifier: MIT\r\npragma solidity ^0.8.20;\r\n\r\nimport \"@openzeppelin/contracts/token/ERC20/IERC20.sol\";\r\nimport \"@openzeppelin/contracts/access/Ownable.sol\";\r\n\r\ncontract WalletContract {\r\n    struct Token {\r\n        bytes32 ticker;\r\n        address tokenAddress;\r\n    }\r\n\r\n    bytes32[] public tokenList;\r\n    mapping(bytes32 => Token) public tokenMapping;\r\n    mapping(address => mapping(bytes32 => uint256)) public balances;\r\n\r\n    constructor() {\r\n        // You can initialize your contract here\r\n    }\r\n\r\n    modifier tokenExist(bytes32 ticker) {\r\n        require(\r\n            tokenMapping[ticker].tokenAddress != address(0),\r\n            \"Token doesn't exist\"\r\n        );\r\n        _;\r\n    }\r\n\r\n    function addToken(bytes32 ticker, address addressToken) external {\r\n        tokenMapping[ticker] = Token(ticker, addressToken);\r\n        tokenList.push(ticker);\r\n    }\r\n\r\n    function deposit(uint amount, bytes32 ticker) external tokenExist(ticker) {\r\n        IERC20(tokenMapping[ticker].tokenAddress).transferFrom(\r\n            msg.sender,\r\n            address(this),\r\n            amount\r\n        );\r\n        balances[msg.sender][ticker] += amount;\r\n    }\r\n\r\n    function withdraw(uint amount, bytes32 ticker) external {\r\n        require(tokenMapping[ticker].tokenAddress != address(0));\r\n        require(balances[msg.sender][ticker] >= amount, \"Not sufficient funds\");\r\n        IERC20(tokenMapping[ticker].tokenAddress).transfer(msg.sender, amount);\r\n        balances[msg.sender][ticker] -= amount;\r\n    }\r\n}\r\n",
  "sourcePath": "C:\\Users\\USER\\DEX\\contracts\\walletContract.sol",
  "compiler": {
    "name": "solc",
    "version": "0.8.20+commit.a1b79de6.Emscripten.clang"
  },
  "schemaVersion": "3.4.13",
  "updatedAt": "2023-11-09T09:59:57.066Z",
  "networkType": "ethereum",
  "devdoc": {
    "kind": "dev",
    "methods": {},
    "version": 1
  },
  "userdoc": {
    "kind": "user",
    "methods": {},
    "version": 1
  }
}